:1000000000300020D53400002532000031320000DD
:100010003132000031320000313200003132000054
:100020003132000031320000313200003132000044
:100030003132000031320000313200003132000034
:100040003132000031320000313200003132000024
:100050003132000031320000313200003132000014
:100060003132000031320000313200003132000004
:1000700031320000313200003132000031320000F4
:1000800031320000313200003132000031320000E4
:1000900031320000313200003132000031320000D4
:1000A00031320000313200003132000031320000C4
:1000B00031320000313200003132000031320000B4
:10040000FFFFFFFFFFFFFFFFFFFFFFFF7EFFFFFF7D
:1004100002B4714649084900095649008E4402BC9D
:100420007047C04602B4714649084900095C49005A
:100430008E4402BC7047C04603B471464908400070
:100440004900095E49008E4403BC7047002934D03E
:100450000123002210B488422CD301242407A14296
:1004600004D2814202D209011B01F8E7E400A14253
:1004700004D2814202D249005B00F8E7884201D3EE
:10048000401A1A434C08A04202D3001B5C082243C6
:100490008C08A04202D3001B9C082243CC08A04237
:1004A00002D3001BDC082243002803D01B0901D023
:1004B0000909E3E7101C10BC7047002801D0002098
:1004C000C04307B4024802A14018029003BDC046D1
:1004D000D90000000029F0D003B5FFF7B9FF0EBC2A
:1004E0004243891A1847C046002941D010B4041C61
:1004F0004C40A44601230022002900D5494200288F
:1005000000D5404288422CD301242407A14204D2C2
:10051000814202D209011B01F8E7E400A14204D2A2
:10052000814202D249005B00F8E7884201D3401AB9
:100530001A434C08A04202D3001B5C0822438C08DB
:10054000A04202D3001B9C082243CC08A04202D345
:10055000001BDC082243002803D01B0901D0090935
:10056000E3E7101C6446002C00D5404210BC7047E5
:10057000002806D003DB0020C043400801E08020B3
:10058000000607B4024802A14018029003BDC0460D
:10059000190000000029EBD003B5FFF7A7FF0EBC40
:1005A0004243891A1847C0467047C0468446101C0B
:1005B00062468C46191C634600E0C0461FB500F039
:1005C000C7FF002801D40021C8421FBD10B500F0AC
:1005D0000DFF4042013010BD10B500F0B9FF0028FA
:1005E00001DB002010BD012010BDC04610B500F099
:1005F000AFFF002801DD002010BD012010BDC04666
:1006000010B500F031FF002801DC002010BD0120F2
:1006100010BDC04610B500F027FF002801DA002009
:1006200010BD012010BDC046002B11D1002A0FD1F2
:10063000002900D1002802D00021C943081C07B4BA
:10064000024802A14018029003BDC0465DFFFFFFB3
:1006500003B4684601B5029800F024F8019B9E4659
:1006600002B00CBC7047C046F8B54F464646C0B411
:100670001D1C141C061C0F1C01F060FF81468846DF
:100680004346291C4A46201C01F036FF089B361AB7
:100690008F411E605F60484641460CBC90469946BB
:1006A000F8BDC046F8B54F464646C0B41D1C141CE4
:1006B000061C0F1C02F02AF92B1C221C81468846BE
:1006C00001F01AFF089B361A8F411E605F60484692
:1006D00041460CBC90469946F8BDC046F8B55F4609
:1006E00056464D464446F0B40C03460F640A344364
:1006F000A3465E001C03DB0F9C46630A98464D0030
:10070000530F44461C436D0DC90F760DD2000F1CCC
:10071000C000A1469246AB1B614500D1A2E0002B70
:1007200000DCF0E0002E0CD1261C164300D1C0E006
:10073000013B002B00D041E15C464B46821AE71A90
:1007400021E0D04EB54200D1C8E080244A462704BB
:100750003A439146382B00DD0AE11F2B00DD4BE1C7
:100760002026F61A4C4652465746B440B740DA4067
:1007700022433E1C4C46771EBE41DC403243261CC1
:100780005B46821A9F1B904280414642BB1B141C51
:100790002E1C0F1C180200D4A9E05D02690A8846CD
:1007A0004246002A00D1D4E0404601F087FE051CF5
:1007B000083D1F2D00DDD5E02822131A201C4146DC
:1007C000D840A940031C0B43AC40AE4200DD8BE097
:1007D000AE1B711C1F2900DDFBE01F20851B1A1CAE
:1007E000201CAA40C840AC401043661EB4410443DC
:1007F000CB40012200260F202040042862D0201D7B
:10080000A042A441614201255B182F401C0207D57C
:100810009C4EB24200D198E09B4C161C2340013202
:100820005C07C00852050443DB08510D012960DD57
:100830001B0371051B0B4E0D002000210A0D201C0F
:100840001105924C0B43760575081C402C43630040
:100850005A08FF07111C39433CBC90469946A246F2
:10086000AB46F8BD002B00DC8EE0002E2ED0854E6E
:10087000B54200D1A6E080244E4622041643B1467C
:10088000382B00DD16E11F2B00DD71E12026F61A62
:100890004A46B240904652464446DA4022435446C5
:1008A000B440261C741EA6414C463243DC4012184C
:1008B000F4E0041C0F206A1C5B462E1C0F1C204019
:1008C00004289CD101252F40201C9FE7144300D011
:1008D000DEE06A1C5B46041C2E1C8CE780215B4614
:1008E000041C0A012E1C86E7761B674D2B40721CE8
:1008F00081E7251C1D4300D168E2002E41D08020F5
:100900000203134394E7002B00D088E0691C4E05D6
:10091000740D012C00DC1BE15B46161C4C46821A50
:10092000191B90429B415B42C91A88460B0200D4B6
:100930009EE0371ABA4592415E46A41B5342E11A23
:1009400088463C1C2E1C67462AE7161C0023002400
:1009500072E7201C01F0B2FD2030051C083D1F2D60
:1009600000DC29E7031C283B9C40231C00242CE7C7
:100970004A4653461A430026002A00D100E70122C6
:10098000FEE61D032B0B57E7002B00D005E16E1C84
:100990007405630D012B00DCABE03A498E4200D1B7
:1009A00031E11118814280414B4642425B449B1821
:1009B000DC0749080C435B08AA1C1CE7314FBD4209
:1009C00000D0C7E6041C80205B460F1C02012E1CD1
:1009D00011E7301C1F381A1CC240151C202900D1F9
:1009E00083E03F218E1BB3401C43631E9C412C437C
:1009F000012200230026FEE61C1C203C4F46E74057
:100A00003E1C202B73D04022D41A4B46A3401A1C04
:100A100057463A43531E9A4132430026B0E65F429E
:100A2000002D51D0174DAE4200D156E180245A46D8
:100A300021040A439346382F00DDDBE01F2F00DD41
:100A400079E12021CC1B051C5A46A240FD40A04064
:100A500015435B46421E90412843FB4057463C1AD3
:100A6000A24592414846C11A55424B1B674691E642
:100A7000081C104331D10027012200230420002646
:100A8000C4E6C046FF070000FFFF7FFFFFFF0F80A7
:100A9000013B002B24D153461A184C468242804118
:100AA0005C444342E3182E1C141C18023ED4721CF2
:100AB0000F1CA0E64A4653461A430024002A00D1E0
:100AC000F5E601221218E9E75B46034300D083E014
:100AD000231C721C544667468DE6141C2E1C5FE6D0
:100AE000CD4EB54200D0CBE66CE700237CE7002278
:100AF0008EE75E460643002D00D0F4E0002E00D1C4
:100B00004CE14B46134300D17EE115184E46854219
:100B100080415E444242B3181E0200D482E1BF4FBE
:100B20002C1C3B4002220F1C012664E6BA4D701CAF
:100B3000A8424BD0B94F0125254062083B402C1CF0
:100B4000DF0714433C43B21C5B08061C0F1C52E633
:100B50005E460643002D2CD1002E00D07DE04E468F
:100B6000141C164387D04B4667460122002642E6F6
:100B70001E1C203E4C46F440261C202B00D1D8E001
:100B80004022D41A4B46A3401A1C54462243531EFB
:100B90009A4132430024121880E75B42002D37D17E
:100BA0005C46044300D0D7E0721C4B4654460F1CF1
:100BB00021E6002E6ED14B46141C134300D1DCE01D
:100BC00080254B4667462A01934E14E68021061C79
:100BD0000A010023042019E6013F002F79D1171ADA
:100BE0005B46BA45AD414946CA1A68423C1C131AD5
:100BF0006746CFE55F46074300230020002F00D162
:100C00002CE701202AE780252A0100230420FDE5A6
:100C1000814DAE4200D1D3E080245D4622041543CD
:100C2000AB46382B00DDB0E01F2B00DDDBE02025DC
:100C3000ED1A021C5C46AC40DA40A840451EA841B3
:100C4000224302435846D840031C55465419544584
:100C500092414B4450421B1827E74A4656463243BE
:100C600000D185E0851B5B464C46A8429241191B8A
:100C700056428B1B1E0200D4ADE057463D1A5B4620
:100C8000AA458941E41A4A42A31A67462C1C01224C
:100C90000026B0E54D46161C154344D05C46802125
:100CA000C0086207E3080D0310432B4200D181E026
:100CB0004C46E10829427DD1F70866073E430B1CEC
:100CC0006746700FDB008022F40003431201524E8E
:100CD00091E5514DAE4200D0ADE680204B465446E2
:100CE0006746020187E5002E5ED04C4614431AD0B9
:100CF000C7088025584643072C03C0081F432042DD
:100D000008D04E46F308234204D15246D50877074F
:100D1000181C2F43C300FC00780F0F1C80210343D5
:100D20000A013D4E67E5802632015B46041C3A4EBF
:100D300061E5002229E7391C20395C46CC40221CA1
:100D4000202F67D04023DF1B5D46BD402843431E54
:100D500098411043002381E6013B002B2CD15044E5
:100D60005C469042AD414C446A42A318041C9CE688
:100D70005B46041C012200263DE580240421002757
:100D80002201274B4842244E40E55D46054300239F
:100D90000022002D00D158E7012256E7141C4B46D3
:100DA0000F1C0122002626E5141C80224B4612014E
:100DB000194E20E5061C84E7174A964200D030E71A
:100DC0000F1C80214B4654460A0114E57605760D2A
:100DD0000023002430E5181C284300D14BE62C1CCE
:100DE0000122002607E51C1C203C5D46E5402C1C2A
:100DF000202B1CD04022D31A5A469A400243501E40
:100E000082412243002320E75B46041C0F1C012281
:100E10000026F0E4002599E7FF070000FFFF7FFFB1
:100E2000FFFF7F002C1C0F1C01220026E3E40022A0
:100E3000E4E7C046F0B54D4644465F465646F0B43A
:100E40001D1C4B00141C0E035B0DCA0F87B0071C42
:100E5000360B98469146002B1DD1321C024300D11F
:100E600081E1002E00D104E2301C01F027FB27288D
:100E700000DDF8E12821031C083B0A1A391C9E40BA
:100E8000D1400E439F40C14B0021181A00228046DA
:100E90008A4600920FE0BE48834231D080214B0346
:100EA0001E43BC487A0FF600002100231643FF00C2
:100EB00080448A460093291C201C251C4A000C03F0
:100EC000CB0F240B520D9B4625D1211C014300D191
:100ED00050E1002C00D1C2E1201C01F0EFFA2728DC
:100EE00000DDB6E1031C2822083B291C121A9C4095
:100EF000D1400C439D40A54B1A1A0020029019E0E6
:100F0000321C3A4300D029E108270223BA460026C2
:100F100000270093CFE79E48824200D113E1802151
:100F20004B031C439B49680FE40000230443ED007E
:100F30005218029348465B4643400298514601933B
:100F400001430F2900D8DFE043469A1A0492A642D3
:100F500000D86EE171087B08F6073343FA0789462B
:100F600098460292280E240204432D022704390CCD
:100F7000AB46250C00914846291CFFF767FA009FF5
:100F8000061C4743291C4846FFF7A4FA43460804B9
:100F90001A0C1043874207D90019013E844203D836
:100FA000874201D9013E0019C11B8A46081C291C31
:100FB000FFF74CFA009B071C4343291C50469946F7
:100FC000FFF788FA424610040B04010C0B439945C5
:100FD00004D91B19013F9C4200D864E136043E430A
:100FE0005F464A46390C89469B1A59463204170C0B
:100FF0000A0449467943120C03928C460399300C3B
:101000007A4341434F4678438C44170C6744B942B6
:1010100002D9802149024018390C120440183F04BB
:10102000110C7F18834200D227E100D141E10299DF
:101030001B1ACF1BB942804141425A1A9046A24224
:1010400000D15FE1101C291CFFF700FA009B029001
:101050004343291C40469A46FFF73CFA380C0904E2
:1010600001438A450AD9029A0919013A02928C422F
:1010700004D88A4502D9013A029209195346C81A7E
:10108000291C0590FFF7E2F9009A291C424380468B
:1010900005989246FFF71EFA3F040D043A0C2A43C6
:1010A000924509D901214B4212199844944203D820
:1010B000924501D998441219029D43462F041F43BB
:1010C0005046111A3804030C4D465D430398AC4654
:1010D000039D3A0C584355434B465A43AC44030CCA
:1010E00063449D4202D980256D0252191D0C0004F3
:1010F00052191B04050C5B19914200D2E6E000D1A5
:101100003DE1012217435AE0890023488C466044A0
:1011100001688F46019B1E4A0026002700200021FF
:10112000381C0F0D3C051D4D344312052540154359
:101130006E00DB077108194307B03CBC9046994626
:10114000A246AB46F0BD211C03202943029000D0EB
:10115000F0E60223002400250293EBE60C20032195
:1011600082460091A7E604270123BA4600260027FD
:101170000093A0E60121002400250291DAE6012770
:101180000023074E7F42024AC8E7C0460DFCFFFF1E
:10119000FF07000001FCFFFF9C760000FFFF0F80AF
:1011A000FFFF0F002F1C5A46029D261C0192022DA4
:1011B000B0D0032D00D101E1012D00D19CE0049BB2
:1011C00082481A18002A00DC8CE00F243C40042CD2
:1011D00005D03B1DBB42BF417D4276191F1CF1016A
:1011E00005D57B4A04998020C40016400A19794B22
:1011F0009A4200DD8EE77507FF08760251052F43FE
:10120000360B4A0D019B89E700220026002785E75F
:10121000802001030E4216D00C4214D10C43260349
:10122000360B5B462F1C6C4A78E74C460194009DB8
:10123000BDE7A64243D00498B84601380027049081
:10124000B14602978EE60E4333031E0B624A4B46AD
:1012500064E7041C283CA5402C1C00254BE601F04B
:101260002DF920303BE6061C283EB7403E1C0027E7
:1012700009E601F023F92030F9E5029A013E111C3C
:1012800059445945924152421219D3189C4204D2F2
:1012900098426BD816D01B1ACBE6A342FBD18B45E4
:1012A000F6D9231AC5E6994500D897E6013F1B19E0
:1012B00094E6029ABA42E0D302990023B9E6AF421B
:1012C000B9D947E68F4251D80023B2E60919013F48
:1012D00058468C4219D9914200D012E7984200D06A
:1012E0000FE76CE73D4C049D631B382B1CDD019B15
:1012F00000220026002711E7019B00222B40002638
:1013000000270BE701277F4259E78A4203D800D024
:10131000F7E69842E2D25D4668005845AD416D421D
:101320002C19013F0919D6E71F2B34DC049C2C4AE9
:10133000381CA518311CAF40D840A9403C1C0143C3
:10134000671EBC410F1C2743DE400F233B40042B8C
:1013500005D03A1DBA42BF417D427619171C3202B0
:1013600011D5019B012200260027D7E65944594593
:10137000924152421219D318013E1B1A59E6002B12
:10138000A4D10020AAE77007FF08710207430E0BE3
:10139000019B0022C2E61349049C301C0A1BD0406A
:1013A000051C202B08D0104BE1188E4037437B1EC4
:1013B0009F412F430026C8E70026F7E7802210034D
:1013C000064331030E0B019B034AA7E6FF0300000F
:1013D000FFFFFFFEFE070000FF07000002FCFFFF0B
:1013E0001E040000E2FBFFFF3E040000F0B594463F
:1013F00047461A03061C580080B4170B420D1948C3
:101400000D034C00DB0F2D0B640DC90F9846844271
:1014100008D0144882420DD00120944212D004BC5E
:101420009046F0BD2B1C33430120002BF7D10D4813
:101430008242F1D163463B430120002BEFD10120D2
:101440009442ECD1BD42EAD16645E8D1414506D08F
:10145000002CE4D1281C3043451EA841DFE70020C2
:10146000DDE7C046FF070000F0B557464E4645464B
:10147000E0B4041C4E000803C90F8A46171C59002B
:101480001A03050B700D160B4A0D3049DB0F9C46F5
:10149000884232D02D498A4235D000280FD1291CEC
:1014A00021434B424B419846002A0BD0002B1AD1C6
:1014B000E2452CD05546002D18D1012018E0002A15
:1014C000F6D19046311C39434B424B4141460029ED
:1014D00006D1002BECD056460120002E08D005E0A6
:1014E0000020002B04D16746002FE6D1012358428B
:1014F0001CBC90469946A246F0BD2B1C2343C9D084
:1015000002214842F4E7331C3B43C6D0F8E790423F
:1015100005DC09DA5246002AE8D00120E8E7544603
:10152000002CE3D10120E3E7B542C3D807D0002067
:10153000B542DDD250460028D8D00120D8E7BC42C1
:10154000B8D80020BC42F5D3D2E7C046FF07000060
:10155000F0B544465F4656464D46F0B49446061CE8
:101560001A035800170B420D2E480D034C00DB0FD9
:101570002D0B640DC90F9846844233D0294882420E
:1015800036D0002C19D0002A20D1934663463B4325
:10159000584258415B468246002B1DD051460020E0
:1015A000002904D14246002A14D1012460423CBCE7
:1015B00090469946A246AB46F0BD2B1C3343584299
:1015C00043419B46002AE1D0002BEBD1414515D089
:1015D0000029EAD10120EAE70028F7D001200029FC
:1015E000E5D0E2E72B1C33430220002BDFD1C5E717
:1015F00063463B430220002BD9D1C2E79442E7DC8B
:1016000005DBBD42E4D806D00020BD42CFD2002980
:10161000CBD00120CBE76645DAD800206645F6D36B
:10162000C5E7C046FF070000F0B5564644465F4692
:101630004D46F0B44F001D1C0B03141C1A0B7B0D00
:1016400087B0061C92469846CF0F002B21D102434B
:1016500000D149E15346002B00D1E4E1504600F0AF
:101660002DFF031E272B00DDD8E1083B5146994092
:1016700028228846111A321CCA4041460A43924623
:101680009E40D84B0022181A0021804691460391B3
:1016900011E0D54883423ED0802153464A031A4385
:1016A000D000710F0843D14A824600230020F60083
:1016B000904499460390291C201C251C4A000C03C9
:1016C000CB0F240B520D9B4631D1211C014300D17D
:1016D00012E1002C00D19DE1201C00F0EFFE272834
:1016E00000DD91E1031C2822083B291C121A9C40B2
:1016F000D1400C439D40BB4B59461A1A79400020FB
:101700004B46019103430F2B26D89900B84B8C46CA
:10171000634419688F46111C314300D0DFE008266E
:1017200000200221B146824600260391C3E7AE485D
:10173000824200D1C9E080214B031C43AB49680FB2
:10174000E4000443ED0052180020594679404B460E
:10175000019103430F2BD8D9424433042904049246
:101760001A0C0F0C101C7843360C331C80462D0CC1
:101770007B43301C6843111C69439C4643468346A7
:10178000180C08186044844500D91FE1010C434639
:10179000039119040B0C0004C0182104240C0590BB
:1017A000101C6243090C02924843321C66434A43B0
:1017B000029BB146060C9046B4461A1C6244424451
:1017C000904502D9802673029944160CB046C14454
:1017D00000044B46060C1204029393195646320439
:1017E000100C021C6A439C46031C7B439146320C3E
:1017F000574398461B0C9A46D144B94455434F452C
:1018000002D980277E02AD194B461F0C4646ED19C2
:101810001F0433041E0C031C4B43604351435443C9
:101820001A0C8018B046401847449A46814202D9A3
:1018300080214E02A419039B1A1C62445A4462453B
:1018400089414E425146B34603040E049C46029918
:10185000330C6344CE18B046C246DA44D219BA42B9
:10186000BF4151467B426F18F9189946DA459B41B2
:101870005E42029BB3469845B64176425B461E43A4
:10188000000C49459B41AF42AD4136186F4258426A
:10189000384336180598341956020643CB0D6402B6
:1018A000701E8641D20D164349021C430E43E001CF
:1018B0002FD50127049D374073083E1CE0070135F2
:1018C0001E4304950643640823E0231C2B43032096
:1018D000002B00D039E700240025022035E70C2238
:1018E000032391460393E6E6042600230120B14634
:1018F0009A4600260390DEE600240025012024E716
:1019000003985446022844D0032800D1EAE0012875
:1019100060D0049A37495018002800DC95E00F2762
:101920003740042F05D0311DB142B64175426419CC
:101930000E1CE10105D53048049A8023DF000440E5
:10194000D0192E49884224DC019B6507F608640201
:10195000420501272E43240B520D1F400020002179
:10196000090D0D052543264C12052C401443630038
:10197000301C5E08FF07311C394307B03CBC904661
:101980009946A246AB46F0BD5A462E1C019202284B
:10199000BAD1019E01273740134A00240026DDE713
:1019A000544601970398ADE701260027154C76426F
:1019B0000D4AD3E72E1CA5E7802213035146194296
:1019C00035D10B431D032C0B074AC7E780214B027F
:1019D0009B44DBE6019B00221840C7B2002400268E
:1019E000BCE7C0460DFCFFFFFF07000001FCFFFF46
:1019F000DC760000FF030000FFFFFFFEFE07000093
:101A0000FFFF0F80FFFF0F00041C283CA5402C1C8B
:101A1000002570E600F052FD203060E6283B9E4035
:101A2000B24600262DE600F049FD203019E61C42A2
:101A300006D11C432603340B5F462E1C2E4A8DE72D
:101A40000B431803040B2C4A88E72C4F049D7B1B87
:101A5000382B06DD019E0127374000220024002696
:101A60007CE71F2B21DC049A254F351CD119201C43
:101A70008E40DD408840321C2843561EB241061C71
:101A80001643DC400F233340042B05D0371DB742EB
:101A9000B641714264183E1C250217D5019B0127EF
:101AA0001F4001220024002658E71648049A211CF2
:101AB000871AF9400D1C202B12D0134BD0188440EC
:101AC0002643721E96412E430024DBE7019A6507E8
:101AD000F6086002012717402E43040B00223DE761
:101AE0000024EDE780210F033C43019824030127E4
:101AF000240B0740004A31E7FF07000002FCFFFF0C
:101B00001E040000E2FBFFFF3E040000F0B5574654
:101B10004E464546E0B4071C0D034E00680ACC0F44
:101B2000790F08438446111C18035A00FD00400A2F
:101B3000DF0F4B0F1843C74BC900760D520D8A4675
:101B40009A4200D1DEE001235F40B946BC4200D199
:101B5000A6E0B71A002F00DC0BE1002A12D1524692
:101B6000024300D1D2E0013F002F00D05BE151469B
:101B70006F1ABD42AD4162466B42101A3D1CC31A3A
:101B8000371C24E0B34A964200D1DEE080210B04EA
:101B90001843382F00DD1EE11F2F00DD60E12021FA
:101BA000C91B021C53468A40FB401A4353468B40D4
:101BB000191C4B1E9941031C0A43FB40AA1A674695
:101BC0009542AD41F81A6B42C31A151C371C1A0214
:101BD00000D4C2E05E02710A88464246002A00D163
:101BE000EBE0404600F06AFC021C083A1F2A00DDC8
:101BF000ECE02823181A2E1C4146C6409140331CA5
:101C00000B439540974200DDA4E0D01B411C1F29E7
:101C100000DD0DE11F273A1A2E1C181CCE40904003
:101C2000954030436A1E9541CB4005430121002772
:101C30000F262E40042E00D170E02E1DAE42AD4185
:101C4000684201221B181440180207D5814FB9427F
:101C500000D1AEE0804D0F1C2B400131F208490548
:101C60005E073243DB08480D012800DC77E01B03E8
:101C70007F051B0B7E0D002000210D0D101C29057A
:101C8000764A0B4377057E081A40324353005D08BD
:101C9000291CE40721431CBC90469946A246F0BD8E
:101CA000B31A002B00DCA3E0002A3BD0694A96421D
:101CB0004BD080210F043843382B00DC14E153460D
:101CC000184300270022002800D001225219AA42FE
:101CD000AD4167446B42FB18151C371C1E023CD5F6
:101CE0005C487E1C864200D177E15B4901222A4094
:101CF0000B406808151CD90705430D435B08B91C48
:101D0000371C95E7014300D11DE71EE7711C371C06
:101D10000F2663462E40042E00D08EE70122144089
:101D20002E1C91E752460243F0D0013B002B09D113
:101D300057467919A9429241554260444319371CCC
:101D40000D1CCBE743498E42B6D18020634601018A
:101D5000371C6DE7BF1A404A1340791C68E7151C11
:101D60001D4300D120E2002F3ED0802631030B43DB
:101D70007DE7002F00D085E0721C51054B0D012B33
:101D800000DCEFE05746EA1B95429B416746391A53
:101D90005B42C91A88460B0200D49CE05446651B7E
:101DA000AA459241C01B5742C31B9846371C4C465C
:101DB00013E70E1C002300225DE7281C00F07EFBC9
:101DC0002030021C083A1F2A00DC12E72838854020
:101DD0002B1C002516E75746384300230022002815
:101DE00000D1EBE60122E9E61803030B002642E7E7
:101DF000002B00D0D8E0771C79054A0D012A00DCC1
:101E000094E0144B9F4200D1FDE051464919A9428C
:101E1000AD4162466B428018C2184908D5070D4390
:101E20005308B11C04E70B498E4200D0B1E68CE7A1
:101E3000061C1F3E1F1CF7403E1C202972D03F226B
:101E4000101A83401D436B1E9D4135430121002321
:101E50000027EDE6FF070000FFFF7FFFFFFF0F8079
:101E60003B1C203B011CD9400B1C202F5CD0402286
:101E7000D71BB840021C50460243511E8A411A43E8
:101E800000239BE67F42002E40D0CA4CA24200D1E4
:101E90001FE1802166460B041E43B446382F00DD47
:101EA000A9E01F2F00DD3DE12023DE1B291C644635
:101EB000B440F940B5406B1E9D41214363460D433C
:101EC000FB4057467D1BC01AAA459B415F42C31B7E
:101ED0004C46171C7BE60D1C154320D10024012124
:101EE000002304260027AFE61F2B4ADC2021C91A55
:101EF000071C52468F40DA403A4357468F40391C00
:101F00004F1EB941D8400A43071CDFE664462C4304
:101F100069D1511C031C5546171C4C4688E6151CFC
:101F2000371C5AE600238DE70022A4E767462F43BB
:101F3000002E00D0D4E0002F00D126E15346034309
:101F400000D1E4E051464F19AF42AD4160446E42CA
:101F500083191E0200D44EE197483D1C0340022124
:101F6000012765E661462943002E29D1002976D153
:101F700051460143B2D0031C55464C46012100276F
:101F800056E61F1C203F011CF9400F1C202B00D1DE
:101F9000C6E04022D31A9840021C50460243531E0A
:101FA0009A413A43002791E65B42002E30D16746C2
:101FB0002F4300D0C8E0511C031C5546171C37E6C0
:101FC000002965D15746074300D1C8E0031C802093
:101FD00055464C460101774F2AE68023371C1901EC
:101FE0000426002330E6013F002F6ED1544661469F
:101FF000651B401A68E767463D430023002D00D16A
:102000005FE701255DE780263101002304261BE6FA
:1020100068498A4200D1C1E08027664639040E43F0
:10202000B446382B00DDA2E01F2B00DDD0E02021DC
:10203000C91A2E1C67468F408D40DE403E43291C46
:1020400067464D1EA941DF40351C0D433E1C5544DB
:1020500055459B4130185E428319171C3EE6564693
:10206000064354D05746EA1B63469542B641191AB7
:102070007342CB1A1E0200D4A2E07D1B6446AA451F
:10208000BF41001B7A42831A4C4601210027CFE54D
:10209000564606433FD0624680215707ED08D308D5
:1020A0000A033D43134208D0C608164205D15546DF
:1020B000EC0845072543331C4C46680FDB0080269F
:1020C0000343ED0031013B4FB2E53A498A4200D06B
:1020D000E4E68026031C55464C463101171CA7E553
:1020E000002F4CD05346034315D062468026ED089E
:1020F0005107D30837030D433B42DED0C2083A42B2
:10210000DBD15546E9084507131C0D43D5E7634667
:10211000012100278CE5802739016346254F87E59B
:1021200000223AE73C1C203C6646E640331C202F48
:102130005FD04024E71B6646BE40311C0D43691E3C
:102140008D411D430023BCE6013B002B22D15544A9
:102150005545BF417B426044C318171CBEE5802132
:10216000042200240901154B5642124F6CE56346C8
:102170001D430026002D00D169E7012567E7802275
:10218000031C554611010B4F52E5031C5546012116
:1021900000274DE507498A4200D042E78021031C11
:1021A00055460901171C43E57A05560D0023002208
:1021B00061E5C046FF070000FFFF7FFFFFFF7F00D4
:1021C0001D1C154300D189E6151C012100272FE5B0
:1021D0001F1C203F6146F940202B10D04026F31AE7
:1021E00067469F403B1C1D436B1E9D410D430026CF
:1021F0002DE70021A2E73D1C0121002718E500235F
:10220000F1E7C046134A0B0330B5051C48001C0B10
:10221000C90F430D0020934211DD0F4883420FDCAC
:10222000802250030D4A0443D01A1F280BDD0C4DA9
:10223000EB1ADC40221C5042002900D1101C30BD9A
:10224000084C0819FBE7C54007482A1C1D18AC407C
:102250002243F0E7FE0300001D04000033040000E9
:1022600013040000FFFFFF7FEDFBFFFFF8B5041E26
:102270002DD0C50F00D04442201C00F01FF9164994
:102280000A1A0A2816DD0B388440570526037A0DF2
:10229000360B002700200021381C0F0D3B050F4C8A
:1022A00033431C401605344361004A08ED07111CF6
:1022B0002943F8BD0B26011C301A1531231CC440DC
:1022C0008B40520521031F1C0E0B520DE2E7002527
:1022D000002200260027DDE71E040000FFFF0F801C
:1022E000410070B50E0E731C4202C50FD8B2540ADD
:1022F000012815DD6307E024A000120B341800202C
:102300000021181C0B0D1E051C4B324361054C08A7
:10231000134023435A005608ED07311C294370BD72
:10232000002E16D1002C1ED0201C00F0C7F80A2861
:102330001DDC0B22111A021C231C1532CB409440C9
:102340001E1C231C34030E4E220B301A41054C0D6B
:10235000D5E7002C03D06307120B0A4CCFE7094CDA
:1023600000220023CBE7002400220023C7E7011C42
:102370000B398C40261C0023E4E7C046FFFF0F808A
:1023800089030000FF070000F0B5041C4800400D61
:102390000B03CD0F411C620F5B0A4F051343E60090
:1023A0007A0D012A35DD3E494218FE2A18DD8023C8
:1023B0005900FF220423580105D5FF293FD0394F8A
:1023C0000A1C3B400131CCB2DF08012C19DD790237
:1023D0004F0AD2B2D2051743ED07381C2843F0BD8F
:1023E000002A2FDDA401770F611E8C41DB002E4EE9
:1023F000234381193B430F261E40042EDBD00433B8
:10240000D9E7002FE5D0002A16D08020C603374335
:10241000DDE7002806D133430121002B15D1042329
:102420000022C8E71E43C2D08024DB00A00480261F
:1024300003437100FF22DEE77B025F0ACAE7FF2247
:102440000027C7E7173203DA012105230022B2E78C
:102450008022164F11040B433C1A1F2C0DDC14492B
:10246000321C4718BE40301CBB40461EB041E24003
:102470000343134301210022BDE70E4A1F1C111A1A
:10248000CF403A1C202C09D00B4C00198340334319
:102490005E1EB341134301210022ACE70023F6E79F
:1024A00080FCFFFFFFFFFFFB81FCFFFF9E0300009E
:1024B00082FCFFFF7E030000A2FCFFFF1C21012322
:1024C0001B04984201D3000C10391B0A984201D317
:1024D000000A08391B09984201D30009043902A2F5
:1024E000105C40187047C04604030202010101015C
:1024F00000000000000000009C460304F0B51B0C27
:1025000017043F0C150C1E1C041C000C7E436B436F
:1025100047434543FB18300C1818874202D98027DF
:102520007B02ED18070CED1967467C434A433604DD
:10253000330CA11800044919C018F0BDF0B54D4680
:1025400044465F465646F0B41C1C85B00025002961
:1025500000DAE2E0002C00DAD8E083460F1C924655
:102560001E1C141C80468946002B5AD18A426DD904
:10257000101CFFF7A3FF00280CD02023191A5A467D
:102580003E1CCA408640171C37435E468640844046
:10259000B946B046260C2004030C311C48469B4625
:1025A000FDF754FF59464143071C8A464846311CF3
:1025B000FDF790FF42460804130C1843824509D9E1
:1025C0000019791E844200D97EE1824500D87BE162
:1025D000023F00195246831A181C311C9A46FDF717
:1025E00035FF5946414381468B465046311CFDF725
:1025F00071FF464632040804130C184383450BD977
:102600004E460119013E8C4200D95FE18B4500D84E
:102610005CE102246042814438044F46384300267E
:1026200003E08B4265D900260020021C331C002DDC
:1026300003D0311C002342428B41101C191C05B0F1
:102640003CBC90469946A246AB46F0BD002A04D158
:1026500001200021FDF7FAFE041C201CFFF72EFFCD
:10266000002862D14F4623043E1B180CB146270CAC
:1026700000900126391C4846FDF7E8FE009A824684
:102680004243391C48469346FDF724FF434609045C
:10269000180C01438B4508D952460919013A8C425E
:1026A00002D88B4500D928E192465A46881A391C2F
:1026B0008346FDF7CBFE0099814641435846009181
:1026C000391CFDF707FF47463B04009F08041A0C1E
:1026D0001043874208D94B460119013B8C4202D86E
:1026E0008F4200D90EE19946524610044F463843B6
:1026F0009BE7181CFFF7E2FE041E6ED1BE4202D318
:10270000DA4500D98FE7002601208EE7161C1F1C32
:10271000ED4300237242BB411FE7051C0E1C002144
:102720006842B14101256D4214E720210B1A47464A
:10273000DF404E464A46DE4082408440391C4346D4
:1027400083401143270C2004020C0191301C391CDA
:1027500098460092FDF77AFE009982464143301C6C
:102760008946391CFDF7B6FE019E0904330C194356
:1027700089450CD95046091901388C4200D9BAE074
:10278000894500D8B7E002225642B24409194B46A7
:10279000C81A391C8146FDF759FE0099061C4143B1
:1027A00048468B46391CFDF795FE019A090413042F
:1027B000180C01438B4509D90919721E8C4200D9A6
:1027C00095E08B4500D892E0023E09195B465246DF
:1027D000C81A110481460E434CE720231B1A5246A7
:1027E000DA408640164350465A46DA40A040391C2B
:1027F000D9400090131CA74030043B438946370C56
:10280000010C02914846391C0193FDF71FFE029A04
:1028100082464243391C48469346FDF75BFE019BC6
:102820000904180C01438B450AD952468919013A0B
:102830008E425ED88B455CD9022358428244891966
:102840005A46891A0391081C391CFDF7FFFD029BAB
:10285000391C4343814603989B46FDF73BFE019F8D
:1028600009043804020C11438B450AD94B468919D7
:10287000013B8E4239D88B4537D9022778428144B3
:1028800089195E4653468A1B180449460843009935
:1028900093460A040704120C3B0C060C0F0C111C87
:1028A000594372437B437E43D3180F0C8C46D9198E
:1028B0008A4202D980225302F6180F0CF21993456E
:1028C00010D305D00026B0E60F1C83E6B146A3E680
:1028D000664643463704A34009043A0C1C1C8B1877
:1028E0009C42EFD2013800269FE69946C9E7161CA4
:1028F0006CE79246A4E7824649E7022358428244A5
:102900000919D2E6022460428144EDE6F0B55F4643
:102910004D4644465646F0B4914683B0041C0F1C05
:102920009846151C061C8B46002B55D18A426BD944
:10293000101CFFF7C3FD00280AD020223B1C211CDD
:10294000171AF94083400C1C1C438540A34686405F
:102950002C0C2804030C211C58469946FDF776FDE3
:102960004F4680464743211C5846FDF7B3FD300CC7
:10297000090401438F420CD943464919013B8D425A
:1029800000D95FE18F4200D85CE1022250428044CE
:102990004919CF1B381C211CFDF758FD4B464343FA
:1029A000BA46211C071C50469B46FDF793FD360492
:1029B0000C04310C21438B4508D948197A1E8542F5
:1029C00000D93DE1023F834500D839E1454628045E
:1029D0000023384398460FE08B420AD8181CFFF7B3
:1029E0006DFD051E60D1B84500D225E1A14500D896
:1029F00022E10025A8460020414603B03CBC904699
:102A00009946A246AB46F0BD002A04D10120002120
:102A1000FDF71CFD051C281CFFF750FD002800D009
:102A2000B3E07C1B01212F04A2463F0C2C0C8846EE
:102A3000211C5046FDF70AFD83467843211C814640
:102A40005046FDF747FD330C08041843814508D96B
:102A50005A464019013A854202D8814500D915E10C
:102A600093464A46801A211C8146FDF7EFFC211C43
:102A7000824647434846FDF72DFD36040C04320CD0
:102A8000224397420BD953465019013B854200D946
:102A9000DAE0874200D8D7E002256F42BA445946AF
:102AA000080454462043A7E74646202386404A466A
:102AB000181AC2401643221CC24049463B1CC34060
:102AC000A940101CAF409B4638430091370C31049D
:102AD0000B0C0190391C58469A46FDF7B7FC52463C
:102AE00042438146391C58469046FDF7F3FC019B52
:102AF00009041A0C1143884506D94846891901383A
:102B00008E4200D8B6E081464046091A8B46081C22
:102B1000391CFDF79BFC53464343391C80465846FD
:102B20009A46FDF7D7FC019F09043804030C1943AA
:102B30008A4506D942468919013A8E4200D891E069
:102B4000904656464A468B1B10044146084300995E
:102B500007040E04360C020C9B463B0C0F0C311C78
:102B6000594356437B437A43F3180F0C8C46D919CB
:102B70008E4202D980267302D2180F0CD619B345A3
:102B80006CD363D00024A04636E720210B1A261C04
:102B9000DE4085403A1C311C8740DA403943261C10
:102BA0002C0C00918640211C101C9346FDF74EFC16
:102BB0002F043F0C81467843211C82465846FDF77E
:102BC00089FC009B09041A0C11438A450AD948461E
:102BD000491901388D4257D88A4555D902235A429E
:102BE000914449195046091A8B46081C211CFDF7CF
:102BF0002DFC031C7B438046211C58469A46FDF75A
:102C000069FC009A09041004030C19438A450AD987
:102C100042464919013A8D4234D88A4532D90220B8
:102C200043429844491952464846891A0304424689
:102C30001A438A469046FBE6002080460120DBE6E8
:102C4000171CC3E69846A4E69A4628E7AC400D0454
:102C500061460B041A0CAF18BC4293D2002601380F
:102C6000B046C9E68A4500D86AE702277842804420
:102C7000891966E7884500D845E702235A429144FE
:102C8000891941E79046CEE78146ABE702214B42E6
:102C90009B444019E5E6C04680B500AFC046C0463B
:102CA000C046C046C046C046C046C046C046C046F4
:102CB000BD4680BD80B582B000AFFB1D00221A70FA
:102CC00007E0C046FB1D1B78DBB20133DAB2FB1D07
:102CD0001A70FB1D1B78DBB2842BF2D9BD4602B003
:102CE00080BDC04680B582B000AF021CBB1D1A80FB
:102CF00006E0FFF7DFFFBB1DBA1D1288643A1A8099
:102D0000BB1D1B88642BF4D8BD4602B080BDC046F5
:102D100080B582B000AF021CBB1D1A8009E0FA2307
:102D20009B00181CFFF7DEFFBB1DBA1D1288013A7D
:102D30001A80BB1D1B88002BF1D1BD4602B080BD9F
:102D400080B584B000AF7860104BFB60FB687A6898
:102D50001A600F4B0E4A526980210A435A610C4B8C
:102D60000B4A126880218A431A600A4B094AD169CA
:102D7000094A0A40802149000A43DA61074BFA6890
:102D80001A61FB68181CBD4604B080BDE8F0FF1F47
:102D9000C0F00F4000C00440FFF8FFFEECF0FF1F42
:102DA00080B582B000AF7860024B80229A60BD4649
:102DB00002B080BDC0F00FF880B582B000AF78607F
:102DC000024B80225A60BD4602B080BDC0F00FF8B1
:102DD00080B584B000AF7860104BFB60FB687A6808
:102DE0001A600F4B0E4A526902210A435A610C4B7A
:102DF0000B4A126802218A431A600A4B094A516839
:102E0000094A0A40802149000A435A60074BFA6880
:102E10009A60FB68181CBD4604B080BD04F1FF1F1A
:102E200000F10F4000D00440FFF8FFFEECF0FF1F60
:102E300080B582B000AF78600A1CFB1C1A70FB1CC6
:102E40001B78002B03D0054B02225A6002E0034B93
:102E500002229A60BD4602B080BDC04600F10FF864
:102E600080B582B000AF7860024B02229A60BD4606
:102E700002B080BD00F10FF880B582B000AF78607D
:102E8000024B02225A60BD4602B080BD00F10FF82D
:102E900080B584B000AF78600D4BFB60FB687A684A
:102EA0001A600C4B0B4A526901218A435A610A4B42
:102EB000094A1168094A0A40802149000A431A60F8
:102EC000074BFA68DA60FB68181CBD4604B080BD89
:102ED00008F1FF1F00F10F4000D00440FFF8FFFE93
:102EE000ECF0FF1F80B584B000AF7860064B1A6924
:102EF00001231340FB60FB685A1E9341DBB2181C90
:102F0000BD4604B080BDC04600F10FF880B584B066
:102F100000AF7860114BFB60FB687A681A60104B59
:102F20000F4A5269802109030A435A610C4B0C4A2B
:102F30001268802109030A431A600A4B094AD16CBE
:102F4000094A0A40802149000A43DA64074BFA68BB
:102F50001A60FB68181CBD4604B080BD0CF1FF1F51
:102F600040F00F4000A00440FFF8FFFEECF0FF1F10
:102F700080B582B000AF7860034B802212039A6064
:102F8000BD4602B080BDC04640F00FF880B582B0AB
:102F900000AF7860034B802212035A60BD4602B036
:102FA00080BDC04640F00FF880B584B000AF7860B7
:102FB0004C4BFB60FB6800225A80FB6800221A81A0
:102FC000FB6800225A60FB6800225A81FB680022DD
:102FD0001A82FB680022DA60FB687A685A61424A0A
:102FE0004149424BCB588021C90019433F4BD15036
:102FF0003F4B3F4A51683F4A0A40802189000A43BB
:103000005A603B4B3A4A91683A4A0A40802189000B
:103010000A439A60384B384AD278D2B208218A43A0
:10302000D2B2DA70344B344AD278D2B204218A4315
:10303000D2B2DA70FB6800221A802F4B00229A70FD
:103040002D4B00229A712C4B00229A722A4B00229F
:103050005A71254A2449294BC958294B0B408021D4
:10306000C9041943254BD150234B234A1278D2B2BD
:103070001F218A43D2B21A701F4B2E225A701E4B48
:103080001D4A927AD2B2D2B21F218A43D2B2032110
:103090000A43D2B2D2B29A72174B174AD27AD2B23C
:1030A000D2B202210A43D2B2D2B2DA72124B124A1F
:1030B000D278D2B2D2B208210A43D2B2D2B2DA70F6
:1030C0000D4B0D4AD278D2B2D2B204210A43D2B209
:1030D000D2B2DA700B4BFA685A60FB68181CBD4616
:1030E00004B080BD10F1FF1F0070044034100000D8
:1030F00000900440FFF8FFFE00A00640041000000E
:10310000FFFFFFF3ECF0FF1F80B586B000AFF86063
:10311000B9607A6000237B612CE01D4B1B79DBB228
:103120001A1C202313400DD1194B1F221A717B69E1
:10313000002B24D1C046164B1B79DBB21A1C20236E
:103140001340F8D07B6901337B61114BDB79DAB234
:10315000BB681A70BB681B780D2B03D1BB680A22B1
:103160001A700DE0BB680133BB607B681B685A1E98
:103170007B681A607B681B68002BCED100E0C046DC
:103180007B687A691A600023181CBD4606B080BDB2
:1031900000A0064080B586B000AFF860B9607A60E4
:1031A00000237B6125E0C046184B1B79DBB2DBB204
:1031B0005BB2002BF8DABB681B780A2B0AD1134BE1
:1031C0000D22DA71C046114B1B79DBB2DBB25BB268
:1031D000002BF8DA0D4BBA681278DA71BB6801334C
:1031E000BB607B6901337B617B681B685A1E7B680F
:1031F0001A607B681B68002BD5D17B687A691A60DE
:103200000023181CBD4606B080BDC04600A0064085
:1032100080B582B000AF78600023181CBD4602B0B4
:1032200080BDC04680B500AF00F02CFDBD4680BD1E
:1032300080B500AFFFBEBD4680BDC04680B500AFC3
:10324000364A3749374BD150374A88235B01002132
:10325000D150354A354BC0218902D150324A3249CA
:10326000334BCB58D82189011943314BD150314BC5
:103270009B78DBB21A1C0823134007D02D4B2D4A34
:103280009278D2B208210A43D2B29A70264A274BCA
:103290000021D150244A2449274BC958274B1940B3
:1032A000254BD150204B204A1268C02109030A4304
:1032B0001A601D4A1C49204BC958214B0B408021E4
:1032C000490419431C4BD1501E4B06221A701D4B4A
:1032D00000225A701B4B1B4AD278D1B21F220A40DF
:1032E000D2B2DA70184B80221A70164B00221A7173
:1032F000144B00225A71C046124B9B79DBB21A1C48
:1033000010231340F8D0C0460E4B9B79DBB21A1C39
:103310000C231340F8D1BD4680BDC04600E000E05C
:1033200000000000080D0000007004404410000080
:103330003810000000D0074004100000FFFFFEFF1F
:10334000FFFFFFFC004006400050064080B500AF84
:103350002C4B2C4A11692C4A0A40E021C9000A432F
:103360001A612A4B294A5279D2B21F218A43D2B21A
:103370005A71264B254A1279D2B207218A43D2B21A
:103380001A71234B224A1278D2B2D2B273218A43E5
:10339000D2B250210A43D2B2D2B21A701C4B1C4A8C
:1033A0005278D2B2D2B263218A43D2B240210A43C8
:1033B000D2B2D2B25A70164B154A9278D2B21921B3
:1033C0008A43D2B29A70134B00221A700D4B0D4AE9
:1033D000116D0D4A0A40E021C9000A431A650E4AE0
:1033E0000D49C1239B00C9580C4B1940C1239B00B8
:1033F000D1500020FFF78AFD0020FFF7D5FD62B60F
:10340000BD4680BD00900440FFF8FFFE00F007407D
:1034100000D0074000E0074000E100E0FFFF00FFB0
:1034200080B584B000AF7860104BFB60FB687A68B1
:103430001A600F4B0E4A526940210A435A610C4BE5
:103440000B4A126840218A431A600A4B094A916963
:10345000094A0A40802149000A439A61074BFA68E9
:103460005A61FB68181CBD4604B080BD28F1FF1FDF
:10347000C0F00F4000C00440FFF8FFFEECF0FF1F5B
:1034800080B582B000AF7860024B40229A60BD46A2
:1034900002B080BDC0F00FF880B582B000AF786098
:1034A000024B40225A60BD4602B080BDC0F00FF80A
:1034B00080B500AF054A064BD31A054A101C0021FF
:1034C0001A1C00F095FCBD4680BDC0460CF2FF1FE3
:1034D000E8F0FF1F03F032FFFFF7B0FEFFF7E8FF51
:1034E00003F004FF03F0A0FE03F036FF044B0020BE
:1034F000191C00F07FFA031C181C00F05DFCC0468C
:103500002CF1FF1F80B582B000AF7860FEE7C046A7
:1035100080B584B000AF0A1CFB1D011C1970BB1DD7
:103520001A703B1C0E3340221A703B1C0C331B22BA
:103530001A70FB1D1B783F2B04D93B1C0D33A522B1
:103540001A7003E03B1C0D334B221A700020FFF76A
:103550003FFC031C181CFFF78FFC0020FFF7F0FB5B
:10356000031C181CFFF71CFC0020FFF759FF031C6D
:10357000181CFFF785FFFFF78FFB0020FFF750FFB8
:10358000031C181CFFF788FFC0460020FFF720FC33
:10359000031C181CFFF764FCC0460020FFF7D0FB9B
:1035A000031C181CFFF708FCC0460020FFF7C8FBEF
:1035B000031C181CFFF7F4FBC0463B1C0F33002212
:1035C0001A7031E00020FFF703FC021C3B1C0C3397
:1035D000391C0E311B7809780B40DBB2591E8B4128
:1035E000DBB2101C191CFFF723FCC0460020FFF7BC
:1035F000A7FB031C181CFFF7DFFBC0460020FFF7EA
:103600009FFB031C181CFFF7CBFBC0463B1C0E3373
:103610003A1C0E32127852081A703B1C0F333A1CB7
:103620000F32127801321A703B1C0F331B78062BB5
:10363000C8D9FA23DB00181CFFF754FB3B1C0E33E0
:1036400080221A703B1C0F3300221A7031E00020D8
:10365000FFF7BEFB021C3B1C0D33391C0E311B78DF
:1036600009780B40DBB2591E8B41DBB2101C191CD0
:10367000FFF7DEFBC0460020FFF762FB031C181CAF
:10368000FFF79AFBC0460020FFF75AFB031C181CEB
:10369000FFF786FBC0463B1C0E333A1C0E321278F5
:1036A00052081A703B1C0F333A1C0F321278013249
:1036B0001A703B1C0F331B78072BC8D93B1C0E33E9
:1036C00040221A700020FFF783FB031C181CFFF731
:1036D000C7FBC0460020FFF733FB031C181CFFF795
:1036E0006BFBC0460020FFF72BFB031C181CFFF7E9
:1036F00057FBC0463B1C0F3300221A7030E00020FD
:10370000FFF766FB021CFB1D391C0E311B78097884
:103710000B40DBB2591E8B41DBB2101C191CFFF7AA
:1037200087FBC0460020FFF70BFB031C181CFFF7AC
:1037300043FBC0460020FFF703FB031C181CFFF7E8
:103740002FFBC0463B1C0E333A1C0E321278520837
:103750001A703B1C0F333A1C0F32127801321A7068
:103760003B1C0F331B78062BC9D9294B181C00F0C2
:10377000A1FAFA23DB00181CFFF7B4FA3B1C0E3346
:1037800080221A703B1C0F3300221A7030E0002098
:10379000FFF71EFB021CBB1D391C0E311B7809787C
:1037A0000B40DBB2591E8B41DBB2101C191CFFF71A
:1037B0003FFBC0460020FFF7C3FA031C181CFFF7AD
:1037C000FBFAC0460020FFF7BBFA031C181CFFF7EA
:1037D000E7FAC0463B1C0E333A1C0E3212785208F0
:1037E0001A703B1C0F333A1C0F32127801321A70D8
:1037F0003B1C0F331B78072BC9D90020FFF710FEA5
:10380000031C181CFFF73CFEBD4604B080BDC0463B
:103810005C73000090B587B000AF021CFB1D1A70EE
:103820003B1C153340221A700020FFF7D1FA031C0D
:10383000181CFFF721FB0020FFF782FA031C181C5D
:10384000FFF7AEFA0020FFF7EBFD031C181CFFF793
:1038500017FEFFF721FA0020FFF7E2FD031C181CFA
:10386000FFF71AFEC0460020FFF7B2FA031C181C2F
:10387000FFF702FBC0460020FFF762FA031C181C8A
:10388000FFF79AFAC0460020FFF75AFA031C181CEB
:10389000FFF786FAC0463B1C173300221A7030E04F
:1038A0000020FFF795FA021CFB1D391C15311B780F
:1038B00009780B40DBB2591E8B41DBB2101C191C7E
:1038C000FFF7B6FAC0460020FFF73AFA031C181CAF
:1038D000FFF772FAC0460020FFF732FA031C181CEB
:1038E000FFF75EFAC0463B1C15333A1C15321278BE
:1038F00052081A703B1C17333A1C173212780132E7
:103900001A703B1C17331B78062BC9D9FA23DB002E
:10391000181CFFF7E7F93B1C173300221A7026E04A
:103920003B1C17331C780020FFF7B2FA031C181C4D
:10393000FFF7D8FA031C1A1C3B1C0C331A55C0465F
:103940000020FFF7FDF9031C181CFFF735FAC046ED
:103950000020FFF7F5F9031C181CFFF721FAC046F9
:103960003B1C17333A1C1732127801321A703B1C79
:1039700017331B78072BD3D93B1C163300221A7040
:103980003B1C173300221A701AE03B1C17331B78BC
:103990003A1C0C32D15C3B1C16333A1C163212789E
:1039A0000A431A703B1C16333A1C16321278520026
:1039B0001A703B1C17333A1C1732127801321A70F6
:1039C0003B1C17331B78072BDFD90020FFF728FD9E
:1039D000031C181CFFF754FD3B1C16333A1C16320F
:1039E000127852081A703B1C16331B78181CBD46FF
:1039F00007B090BD80B584B000AF0023FB6000230A
:103A0000BB60FFF7A3FC844B181C00F053F9834BF9
:103A1000181C00F04FF92220FFF7FCFE031C804A1F
:103A2000101C191C00F032F92320FFF7F3FE031CD1
:103A30007C4A101C191C00F029F91220FFF7EAFE3D
:103A4000031C794A101C191C00F020F90E20FFF706
:103A5000E1FE031C754A101C191C00F017F90F2019
:103A6000FFF7D8FE031C724A101C191C00F00EF957
:103A70001020FFF7CFFE031C6E4A101C191C00F02B
:103A800005F91120FFF7C6FE031C6B4A101C191C18
:103A900000F0FCF81920FFF7BDFE031C674A101C5C
:103AA000191C00F0F3F80620FFF7B4FE031C644A6B
:103AB000101C191C00F0EAF81320FFF7ABFE031CE2
:103AC000604A101C191C00F0E1F81420FFF7A2FE58
:103AD000031C5D4A101C191C00F0D8F81520FFF7D4
:103AE00099FE031C594A101C191C00F0CFF816202F
:103AF000FFF790FE031C564A101C191C00F0C6F874
:103B00001C20FFF787FE031C524A101C191C00F0F2
:103B1000BDF81D20FFF77EFE031C4F4A101C191C28
:103B200000F0B4F83D4B181C00F0C4F84B4B181CC7
:103B300000F0C0F84A4A3B1D101C191C00F00CF99B
:103B40007B68484A101C191C00F0A0F844E0464B62
:103B5000181C00F0AFF8454A3B1C0833101C191C18
:103B600000F0FAF8BB68424A101C191C00F08EF8ED
:103B70003E4A3B1C0C33101C191C00F0EDF8FB688E
:103B80003C4A101C191C00F081F8BB68DAB2FB68D3
:103B9000DBB2101C191CFFF7BBFC6420FFF7B8F860
:103BA000BB68DBB2181CFFF735FE031C1A1CBB6890
:103BB0003149081C111C1A1C00F068F8174B181C1E
:103BC00000F078F82D4B181C00F074F8244A3B1DC7
:103BD000101C191C00F0C0F87B68012BB7D0284BD3
:103BE000181C00F067F80020FFF790F9031C181C60
:103BF000FFF7CCF9FA239B00181CFFF789F8002087
:103C0000FFF784F9031C181CFFF7B2F9FA239B0095
:103C1000181CFFF77DF8E6E7607300005C73000096
:103C20007873000098730000BC730000D873000024
:103C3000F873000018740000387400005C74000011
:103C40007C740000A0740000C4740000E4740000E0
:103C500004750000247500004475000068750000BC
:103C6000B4750000B8750000C0750000DC75000078
:103C7000E075000000760000247600005076000019
:103C80007476000080B500AFBD4680BD0FB41FB58F
:103C900006AB04CB002200920449069A0448039321
:103CA00000F05EFA05B008BC04B0184744F0FF1FEE
:103CB000415B000010B5041C207812490134002833
:103CC0000FD08B6E5A1E8A66002B04D04B6E187074
:103CD00001334B66F0E7443101F0D2FA431CEBD1DB
:103CE0000EE08B6E5A1E8A66002B05D04C6E0A20A1
:103CF000207001344C6603E044310A2001F0C0FA20
:103D000010BDC04600F0FF1F08B5031C012A12D0E9
:103D1000022A18D00020002A1CD15A6A511E59626A
:103D2000002A04D01A6A107801321A6212E0181CB4
:103D300001F065FA0EE000204A1C0BD0081C191C8B
:103D400000F01EF806E0017B0120002902D1D87A9C
:103D5000431E984108BD00000FB41FB506AB04CB4D
:103D6000002200920449069A0448039300F060FE82
:103D700005B008BC04B0184700F0FF1F093D000063
:103D80004B7A00B5012B13D0042B11D0421C11D05B
:103D9000022B05D84B6A00224A62CB62032201E063
:103DA0000133DAB28B184A7200221873CA7201E02A
:103DB0000120404200BD000038B5051C03F0B0FAF8
:103DC00003F056FA084C2368002B02D098470020D5
:103DD0002060064C2168002902D08847002222601A
:103DE000281CFFF78FFB38BD30F1FF1F34F1FF1F98
:103DF00010B5041C01F099FF201C10BDF0B589B06E
:103E000001901F1C0EAB0391079202901A78081CB8
:103E100001990FAC01380026049225780670B14252
:103E200017D1119BB34214D1049B002B01D06F2DED
:103E30002FD0642D02D0692D00D0A8E0022F02D12E
:103E4000039802389FE0012F00D0A0E003980238C9
:103E500094E0692D0ED004D8582D16D0642D1CD1B5
:103E600008E0752D04D0782D0FD06F2D15D110E0FE
:103E7000002712E0019A002A0FDA80242606B242B7
:103E80000DD051420191029109E000273E1C1024FF
:103E900007E000273E1C082403E0002600E001267E
:103EA0000A240090002006900298211CFCF712FBC7
:103EB00002980591211CFCF7C9FA059A0290092A7B
:103EC00001D8303205E0059A3732782D01D1059AB4
:103ED00057320098069B02990138D2B200900270C6
:103EE0000133002901D00693DEE7011C082C0BD119
:103EF0000498002808D0302A06D00B1C013B302241
:103F000000931A70069B0233079802280FD1002EE7
:103F100001D1002F02D0109901391091109A1192FD
:103F2000102C04D10498002801D0023A1192039970
:103F30000098119A091A8918164A914226DC0099AC
:103F4000CA181199121A8A4203DA01383022027013
:103F5000F5E7102C0AD1049C002C07D0019B002B04
:103F600004D0421E3021023815700170002E02D09C
:103F700001382D2108E0012F02D101382B2103E067
:103F8000022F04D101382021017000E0002009B087
:103F9000F0BDC046FD010000F0B58BB0009001916E
:103FA000009E11A804780993039610AB101C1F788B
:103FB0000594019B039C049212AD013800222D78D8
:103FC000069302700C4317D11499002914D1059C53
:103FD000002C01D06F2D3AD0642D02D0692D00D075
:103FE000BAE0022F02D104980238B1E0012F00D0CC
:103FF000B2E004980238A6E0692D0ED004D8582DFE
:1040000021D0642D27D108E0752D04D0782D1AD049
:104010006F2D20D11BE000271DE0019E002E1ADA33
:10402000009B002B03D180221406A64215D00099D4
:10403000019A00244B42944100930194009E019AFE
:104040000396069209E000273E1C102407E0002793
:104050003E1C082403E0002600E001260A2402900A
:104060000020089003980699221C0023FCF7DCFA34
:104070000398079206990023221CFCF7D5FA079BA8
:1040800003900691092B01DC303305E0079B3733A1
:10409000782D01D1079B5733029A0843013A0292C7
:1040A000DAB2029B1A70089B0133002801D00893F2
:1040B000D8E70299082C0BD10598002808D0302A9F
:1040C00006D00A1C089B013A30210292117002337B
:1040D000099802280FD1002E01D1002F02D0139A87
:1040E000013A139213991491102C04D105980028C9
:1040F00001D002391491049A0298111A149A89185D
:10410000164A914227DC0299CA181499121A8A4257
:1041100003DA013830220270F5E7102C0BD1059C30
:10412000002C08D0009B019A134304D0411E302478
:1041300002380D700470002E02D001382D2108E0E5
:10414000012F02D101382B2103E0022F04D10138C5
:104150002021017000E000200BB0F0BDFD01000047
:10416000F0B5BE4C1D1CA5446B460F915A3320215F
:104170000E90197000200021129013910D920022D0
:1041800008920D9F3E78002E01D100F048FC0D985A
:10419000252101F02EFE1090002813D10D9801F07A
:1041A0003FFE0899021C08180890002A01D100F06F
:1041B00036FC0F980D990E9DA847002801D000F0FD
:1041C0002EFC1BE1109C0D99089B621A9818089010
:1041D000002A05D00F980E9FB847002800D10DE1A6
:1041E000109A109956780131331E252B06D10232D0
:1041F000002101200D920A9109907DE00026012402
:1042000007960C9609942B2B01D100F0FEFB07DCDE
:10421000202B0CD0232B19D10123079300F0F7FB9F
:104220002D2B01D100F0EEFB302B0FD107E00C98C5
:10423000012801D100F0EBFB02270C97E7E3099A74
:10424000002A00D1E3E302230993E0E30A1C2A2BAE
:1042500000D0C8E32E1D2D680A95002D03DA6C42AC
:1042600000230A94099353780131351C0A9A7C483B
:10427000824200DDA6E32E2B00D0E3E04B784E1CFB
:1042800000272A2B00D0D0E02F680435FB43D80F3D
:104290008B780231682B00D1BDE36C2B00D1D4E0C8
:1042A00005224C2B00D1B7E30022DEB2662B00D1F1
:1042B00000E100DCD8E06F2B00D1F0E000DCE3E0AF
:1042C000732B00D108E100DDE5E0702B00D00CE19C
:1042D0000123782608270322079301310D91672EC9
:1042E00000D90DE1652E00D34AE1582E00D124E11A
:1042F00007D8252E00D0FAE022AC26700B950125B8
:104300002AE0632E00D157E3642E00D05AE3032A3B
:1043100000D114E1042A00D004E1073507229543B7
:10432000281C2B686C681293139408300B900A9920
:104330000C9C079D03910094019502960497129896
:104340001399A2AA099BFFF727FE041C002C00D199
:1043500038E3444F6F443D1B099A002A40D0202384
:10436000022A00D130236F465A373B7021782B291F
:1043700004D02D2902D0079520290CD10795302B88
:1043800009D10F98211C01220E9B9847002835D097
:10439000681E01340790099A022A11D1612E01D0BA
:1043A000412E0DD1079E012E28DD0F98211C0222DF
:1043B0000E9FB847002821D007990234023907918F
:1043C0002F1C0A9DAF4209DA69460F985A31012223
:1043D0000E9EB047002811D00137F2E7079D00E09C
:1043E0002F1C002D06D0211C0F982A1C0E9CA047C4
:1043F000002803D0099B002B12D10EE00122574266
:1044000008970CE369465B3120240F9801220E9B2C
:104410000C7098470028F1D001370A988742F1DBE9
:10442000089AD61908960B9DABE6191C3039092954
:1044300005D80A247C43013667183378F5E7311C28
:10444000012027E70027381C24E74E7803226C2E32
:1044500000D0E1E201310422DEE2C04674FDFFFF3C
:10446000FD01000087020000582B18D006DC462B07
:1044700020D0472B21D0452B37D121E0642B0ED003
:104480001EDC632B31D125E0692B08D06E2B26D0A2
:10449000672B2AD111E0752B01D0782B25D1052A65
:1044A00023D000281FD0099C022C00D015E701233F
:1044B000099312E7022A06D117E0002F00D1012745
:1044C000541E012C11D9042A0FD0002800D004E773
:1044D000062702E7002808D1002A06D1FDE6052AB2
:1044E00000D0FAE601E00127F7E6FF26F5E6252EE3
:1044F00000D267E2301C4538022800D962E23FE072
:104500006F2E1AD006D8692E00D100E76E2E00D08B
:1045100058E233E2752E10D0782E0ED0732E00D0D4
:1045200050E20AE22B1D0B932868022A01D100B247
:104530001AE0012A15D140B216E0032A03D12A1D40
:104540000B92286810E0042A00D1E6E6291D0B91A1
:104550002868022A01D180B206E0012A01D1C0B246
:1045600002E0042A00D1E2E6079B0A9C0093019630
:1045700002940397A2A9099A0C9BFFF73FFCE4E67B
:10458000073507218D432A1C0832BF4B0B922C683C
:104590006D689F4200DD15E217A900205E220870B9
:1045A00020236A4418A813800090221C081C2B1C8E
:1045B00001F086FC19A90B7818AAD118053118AB9F
:1045C0001A79012A09D901390878302805D1588883
:1045D000013A01301A715880F1E75979492906D01A
:1045E0004E2924D0302943D100245C8040E0201C97
:1045F000291CA44BA24AFBF7EFFF00280CD0301C6B
:1046000000F0D6FD002803D0A048A14968441AE074
:104610009E48A049684416E0301C00F0C9FD0028FF
:1046200002D0A1A89C491FE0A1A89C491CE01F78CA
:10463000301C7AB2002A0ED000F0BAFD002806D055
:1046400092489749684401F0E3FB904C73E18F482E
:1046500094496844F7E700F0ABFD002802D0A1A818
:10466000914901E09149A1A801F0D2FBA1AC6DE60E
:1046700062256D442B880024013BD01828808C4D86
:104680006D442C70472E0FD005D8452E32D0462EC3
:1046900000D04FE1A2E0662E00D19FE0672E03D04C
:1046A000652E00D046E125E0BA4203DD18A8391C8A
:1046B00001F0E2FD18AB02201A5E111D01DBBA42C7
:1046C0000CDB079A013F002A01D11879471E4523C8
:1046D0001493672E0FD1652514950CE00799D043EC
:1046E0003F1800297AD11F793C18E543EB17271CA6
:1046F0001F4073E01496791C119118A804798C421C
:1047000001DD01F0B9FD18AA0225545F2B20159098
:10471000002C02DA2D2364421593664D6D44002C63
:104720000CD0201C0A21FBF735FF30312970201CEA
:104730000A21FBF7D9FE013D041CF0E75D496944FD
:104740004A1B012AEDDD15AC207814AB2870A2AA13
:10475000013D1978541B4C4BE0192970984200DD3B
:1047600030E118A90B799F4209DB119AD01A021C7B
:10477000291A013A02D330248C54F9E70D1CA2AC5B
:104780004D49E01840181A1C013A002A05D0594238
:104790006C184118895CA154F6E7013BED1A002F13
:1047A00002D1079F002F02D0013D2E232B706522DE
:1047B0006A4410786C1E207018A90027CB57002B74
:1047C00001D0AC1EA6E00C9A012A01D1AC1EA7E0D4
:1047D0000C98022800D0B9E5AC1EA8E018AC2179ED
:1047E0000220225E881A0138C543EB170340BB4202
:1047F0000CDDFB1AC918201C01F03EFD22790221B4
:10480000645E111B0139C843C3170B4062256D4418
:1048100000242A5F1C4D0132D443E1170A40D0180E
:104820009446A84200DDCDE019AA107818AC2149C1
:104830002218053269441F4CFD1A6C44641AAC42BC
:1048400003DA30240C700139F5E7E943CC17184935
:10485000254069444C1B0021994207DA814205DA60
:10486000013A1578013C25700131F5E71494149D47
:104870006D182D1B9D4221DA013C30252570F6E78D
:104880000000000000000000FD01000083020000A5
:104890001C770000217700001D77000022770000C0
:1048A000267700002B770000277700002C77000088
:1048B0008702000086020000DDFDFFFF002F02D10D
:1048C000079F002F02D0013C2E2323706146231C3A
:1048D000002916D06746E51A391A8D4203DA013BE2
:1048E00030251D70F6E7C843C3171940631A1C1C16
:1048F0005D182F1B674507DA013A1078013C2070DC
:10490000F6E7013C3027277018A90A7850B2002832
:1049100002D0013C2D250BE00C9B012B02D1013C68
:104920002B2505E00C9D022D00D00FE5013C202534
:1049300025700BE53C4C6C4408E52C1D0B942C6851
:10494000002C00D1394C079D002D07D0257801346B
:10495000002800D100E5BD4243DCFDE4002808D07A
:10496000201C07993A1C01F02EFA002839D0051BAB
:10497000F2E4201C01F054FA051CEDE42E1D0B9608
:104980002B68042A00D94EE5101CFBF755FD0500E5
:104990004CFD08000D001000089E1E6043E56A46AD
:1049A0002021885A18803EE5089F1F603BE5089D3E
:1049B000EC171D605C6036E52F1D2D6822AC0B974F
:1049C00025709CE4109801F02BFA089E021C301808
:1049D0000890002A23D00F9810990E9DA847FFF742
:1049E000ECFB3D1CB8E400260A961C1C303C092C4C
:1049F00000D93BE40A980A23434301311F190A975F
:104A00000B78F2E70024099401E001270C970131AB
:104A10000B78FFF7F8FB02224B78013145E4089848
:104A2000A3239B009D44F0BD870200002077000077
:104A3000F0B50027A9B0069007910F9309920D9742
:104A40000B9708970A970C970497099D2C78002CD0
:104A500000D156E3201C00F09BFB002822D0099ACD
:104A600001321078099200F093FB0028F7D1002F53
:104A700000D044E3002107980A1C069CA047061CAE
:104A800000F086FB002803D0049B01330493F1E778
:104A9000701C04D12E99002900D132E30127079818
:104AA000311CFFE2252C1BD0002F19D1391C07988F
:104AB0003A1C069EB047C1B2A1420AD00798012213
:104AC000B0472E9F002F00D11BE3099D01350995AA
:104AD00015E3049B09980133013004930990B4E76E
:104AE0001EAC201C00212822FFF782F90998A74E4E
:104AF000457866602B1E252B0CD1211C282214A87A
:104B0000E57001F06DF9099C0022023409940592C8
:104B10000E92FBE02A2D02D0099C013405E001230E
:104B200009992370099C8B7802341A1C303A092A9F
:104B30001FD800260A256E43303B0134F61823782F
:104B4000181C30380928F5D91EAD6E60002E0ED124
:104B500001235842E870291C14A82822013401F0CE
:104B60003FF928780994FF2505960E96C1E00126A5
:104B70006E701EA9682B05D06C2B0CD04C2B0ED15F
:104B8000052309E0607802228A70682805D1012592
:104B90008D70641901E003238B70637801341EAEBD
:104BA000F370672B10DC652B23DA582B1CD004DC48
:104BB000453B022B00D988E01BE0632B29D013DC96
:104BC0005B2B00D081E03CE0702B1ED005DC6E2B0F
:104BD0007ED009DC692B78D106E0752B04D0782BC8
:104BE00002D0732B71D11AE01EAB9D78052D6FD1C9
:104BF00004E01EAB9A78501E012801D8FF2666E01B
:104C0000032A65D104259D7062E00323B3707821E7
:104C100003E0B378002B5BD0FF21F17058E0B1784E
:104C2000002901D0FF22F27000251EAE7319FF206B
:104C300001351872202DF8D1C121FE227172327314
:104C400046E0B178002901D0FF22F27063785E2B34
:104C500002D00134002102E0A378012102345D2B4F
:104C600007D120201EAD6378E874013401E0E378B9
:104C70000334002B29D05D2B00D166E2D8B2C608E0
:104C80001EAD0720AA19184001268640157A301C4F
:104C90006678284310722D2E14D1A278002A11D0E4
:104CA0005D2A0FD001339342E1DCD8B2C6081EADB5
:104CB000A81907251D400126AE40351C067A35434C
:104CC0000572EFE70134331CD3E7FF261EABDE701D
:104CD0001EAE311C282214A801F082F86A467A32EE
:104CE0007178157830780E910595F57801347668ED
:104CF0000994002806D1252D08D00F990C6804319D
:104D00000F9100E000246E2D01D1DDE10024002F81
:104D100001D001270AE00798391C0222069B984718
:104D2000002803D02E9F002FF3D1EAE1672D17D87A
:104D3000652D00D387E0582D4FD009D8252D00D1FF
:104D400002E100D2DDE1453D022D00D9D9E17AE052
:104D5000632D00D1A8E016D85B2D00D0D1E131E160
:104D60006F2D0ED005D8692D12D06E2D00D0C8E160
:104D7000AAE1752D33D0782D2FD0732D00D0C0E14E
:104D800004E108202CE00A2003E0C046FFFFFF7F7B
:104D90000020002F45D111A912AB13AD0091019352
:104DA000311C0295069A079B00F0D8FE1199002944
:104DB00005D12E9F002F25D101240B94A1E1049E43
:104DC000721812990492002905D080231D06A8426A
:104DD00001D0434227E0031C25E0102000E00A2018
:104DE000002F1ED112A913AA11AD01910292311CFC
:104DF000079B0095069A00F0B1FE1199031C00294B
:104E000003D1D6E701270B1C0DE0049E129D7018FC
:104E10000490002D07D0802211068B4203D05B4204
:104E200001E001270023002C3AD0059E032E32D842
:104E3000301CFBF7F7FA0602040623702BE02380F0
:104E400029E0236027E0002F0DD113A90091079AD4
:104E5000301C069911AB00F05BFA119A002A08D1B8
:104E60002E9F002FA8D0BF4D01272868FDF738FAE4
:104E700002E0049EB3180493002C11D0059A042A72
:104E800007D0052A05D0002A05D1FDF77DFA20605C
:104E900001E0206061600C9D784278412A180C92F4
:104EA0000A9901310A916EE00E9A002A00D101267A
:104EB000002C33D000201190A619874200D01EE1AB
:104EC000B44219D02E99002904D0119A002A11DA7F
:104ED00001230D93002107980A1C069DA8470890FE
:104EE000013009D008AB1D782570119801340130CC
:104EF0001190E5E700240D94119E2E9A002E00D10A
:104F0000A0E0002A03D00D98002800D1F7E0049912
:104F10000C9C8A19013404920C94D1E01194013E46
:104F2000701C0CD0002107980A1C069B9847013E74
:104F30000890013003D0119D01351195F0E7119EC5
:104F4000002E00D0BCE0DCE0002F00D0D4E0002137
:104F500007980A1C069EB047051C00F019F90028A6
:104F600003D0049C01340494F1E7252D08D0291CBA
:104F700007980122B0472E99002900D11CE7BBE019
:104F800004980130049001240B945EE501200B90FD
:104F9000002F17D10798391C3A1C069B9847051C0F
:104FA00000F0F6F8002806D0049B0021013304939A
:104FB00007980A1CF1E701220798291C069B9847CD
:104FC00001220B92002C49D000201190874200D082
:104FD00095E0013E351C711C24D02E9A002A04D085
:104FE000119B002B1CDC01210D91002107980A1C4C
:104FF000069B98470890013014D008A8037814A99C
:105000000898DA088A1807210140127A012088409E
:10501000104207D02370119D013401351195D8E756
:1050200000260D96119B08AE3178002B05D02E98E6
:1050300000280AD00D9A002A07D101220798069F5E
:10504000B8472E9A002A5CD059E00020049E2070B8
:105050000C9CF318013404930C942BE01194013E42
:10506000351C711C19D0002107980A1C069CA0470A
:105070000890013011D008A9087814AAC30808992B
:10508000D41807230B400120247A9840013E204287
:1050900003D0119D01351195E2E7119E002E05D137
:1050A000079808990122069B9847CEE4049B99191A
:1050B00004910899002D03DB07980122069DA8475B
:1050C0000A9901310A91C0E4002C00D1BDE4059891
:1050D000032800D9B9E4FBF7A5F9070A02076D46D2
:1050E0001022505B2080B0E4049E2660ADE46E4642
:1050F00010218B5D2370A8E401270B97A5E40127FD
:10510000A3E4022207980021069DA8470A9A0028D6
:1051100005D0002A28D1012671420C9124E0002AF2
:1051200022D10B9800281FD00A9907980A1C069FC5
:10513000B8470A99041C02220798B8470028EAD108
:105140000798211C0122B8470EE0002900D1BFE5D5
:1051500020AB1E7828AAF143197001339342F8D18D
:10516000B6E5C046DCF0FF1F0C9829B0F0BDC04684
:105170008022031C00B5002051008B4204D8034854
:105180000122C3185878104000BDC0463077000097
:105190008022031C00B5002051008B4204D8034834
:1051A0001022C3185878104000BDC0463077000068
:1051B0008022031C00B5002051008B4204D8034814
:1051C0004022C3185878104000BDC0463077000018
:1051D0008022031C00B5002051008B4204D80348F4
:1051E0000222C3185878104000BDC0463077000036
:1051F000031C613B00B5192B00D8203800BD38B521
:10520000057B0023041C43629D4236D1C0790028EF
:1052100033D0637A012B02D06279D10702D4012303
:1052200023732AE0022B08D9591E6172032B01D186
:10523000E56A6562E418207B21E002216172201C8E
:10524000291C2A1C00F0FEFDC0B2002803D1656AAB
:10525000002D05D00AE0012802D1207365620DE01F
:10526000002001226072E272606206E0236A013D62
:10527000656218780133236201E00120404238BDA5
:1052800038B5051C087B00220C1CCB794A6200282B
:105290003AD1002B38D0497A002907D16379990790
:1052A00004D501226272201C00F0C2FD607A012840
:1052B00022D1A179022905D0236AA269E169981A4D
:1052C000884205D1201C002100F0DEFD002813D10A
:1052D000636A226A013B63621570A079013222621F
:1052E000022813D0002801D00A2D0AD1201C002149
:1052F00000F0CAFD002804D0012500232573636255
:1053000002E00021616201E001246542281C38BDF1
:10531000F0B5A1B01190C14802910392694602789C
:105320006C4600255E345D310A701093201C16AB6C
:10533000291C1F221D705D705D801D71FEF758FDD8
:10534000269E029F35600398291C2A1CE577B847E2
:105350000127041C05950F95079509950E9508954D
:1053600006950D950B950C9504953E1C119B9F423F
:1053700000DDEDE1631C00D1EAE1C0256D0135409F
:1053800000D0E5E1202E00D197E00CD8042E64D0A7
:1053900004D8012E22D0022EE8D13AE0082E67D0A0
:1053A000102EE3D182E080214A00964200D1C0E075
:1053B00005D8402E00D195E0802ED7D1A1E08021E4
:1053C000CA00964200D1CAE080231D02AE4200D13D
:1053D000D6E0802081008E42C8D1BCE0201CFFF7BF
:1053E000D7FE002809D0291C2A1C0398029DA84733
:1053F000041C0C9801300C90B8E7201CFFF7F8FE55
:105400002B2800D187E12D2800D089E101240B94BD
:1054100081E12E2C08D1002103980A1C029B984799
:105420000137041C1026A1E7261C303E092E00D9A6
:1054300084E10826302C99D100210A1C0398029D92
:10544000A847041CFFF7D4FE0137042658288DD145
:10545000012180220491160288E7302C00D061E1FE
:1054600003980137291C2A1C029B9847041C7DE7DE
:10547000221C303A092A0CD940262E2C00D075E780
:105480000021029E03980A1CB0470137041C202605
:105490006CE716AB1D79132D04D8581901354471EA
:1054A0001D7138E1089C0134089434E1211C303925
:1054B0002026092900D859E740E1211C3039092963
:1054C00000D931E116AA1079132800D923E1302C34
:1054D00001D1002803D0151801306C711071089C9F
:1054E000013CE1E7201CFFF783FE452800D02CE1BA
:1054F000029E0398291C2A1CB0470137041C8026F1
:1055000034E72B2C07D1002103980A1C029DA847E1
:105510000137041C0AE02D2C08D10021029C0398BD
:105520000A1CA04701230137041C0D93802046006C
:105530001CE7221C303A092A00D9FFE0302C00D0A9
:10554000F4E0291C2A1C029C0398A04780250137FF
:10555000041CAE000AE7302C00D0E7E0DBE0211CA1
:105560003039092900D9F0E006980A22424354183C
:1055700006942B4D069BAB4200DCCCE00695CAE0BE
:10558000049A102A00D181E01CD8022A2ED012D809
:10559000012A00D0EAE60025291C029C03982A1C57
:1055A00014951595A0470E230137041C0595079502
:1055B0000E930221C0E0049804281CD0082800D0D3
:1055C000D4E63CE0049A402A00D183E003D8202AA4
:1055D00000D0CBE668E00498802800D189E00499E7
:1055E00080225500A94200D0C0E685E00425302C79
:1055F00000D09EE08FE0201CFFF7EAFD021E11D1D3
:10560000102304932E2C00D0B0E6029C0398111CAA
:10561000A0470137041C08258BE0C0467C760000BB
:10562000FF7F000005980E9B984274D2079D14A935
:105630006A1001308D18059028780A900EE0201C21
:10564000FFF7C6FD002876D0059A0E998A4262D2ED
:10565000079D14AB68101D182A780A92201CFFF7CA
:10566000C7FD041C303C402800DD073C079AE0B22F
:10567000D40702D50A9C204303E00A9903010B4397
:10568000D8B22870079D0135079544E0201CFFF72C
:10569000AFFD502859D1002103980A1C029B98475E
:1056A0000137041C202544E02D2C08D02B2C08D0D9
:1056B0000398211C0122029DA847013F01E001211E
:1056C0000F91002103980A1C029B98470137041C84
:1056D00040252EE0231C303B092B2FD8302C30D115
:1056E0000021029C03980A1CA0470137041C802556
:1056F0001FE0302C25D10EE0231C303B092B24D891
:1057000009980A224243B04DA4180699303C0994E6
:10571000A94200DD06950021013703980A1CA3E683
:10572000022623E6082621E640261FE68020C60042
:105730001CE604951AE61021049117E680235E0109
:1057400014E680225000049010E6802636010DE613
:1057500080200202964202D09C4B334006E0012397
:10576000032F05DDC721049D4B002B405A425341B6
:10577000002B03D0109D00232B6004E00C98013F08
:1057800010993A180A60211C03980122029CA04734
:10579000049F002F00D080E00D9F002F02D0069DB7
:1057A0006842069016A90A798B185C1D531E1F1CAF
:1057B000581C0BD1FAB2541CE7B216AB1F71002F64
:1057C0000ED1302502325D711A7109E0013BA51A34
:1057D000E81841783029EDD1089801300890E6E7C3
:1057E00006989A213530FF308A00904209D95C79B9
:1057F000302C03D19F79002F00D1A9E0269D0123F1
:105800002B602698016800290ED00D9D002D00D038
:105810009EE00B9C6E4A002C04D080273B0630CAC9
:10582000ED18C6E030CAC4E06A4F08983C685A21B7
:105830000294069C6944231816A80B8000F068FCAB
:10584000029A041C3A605F4B5D4A0D1CFAF7BEFEDB
:10585000002808D05D2068440178302911D0269FA7
:1058600001223A600DE05C4A201C291C5368126832
:10587000FAF7C6FE002804D0269C554B0127276066
:1058800030CB0B9B002B00D193E05048064200D157
:105890008FE0802631066D188BE00F9E002E02D01F
:1058A0000998424209920599099D14AE8B003778F8
:1058B000ED1800238024DC40274203D10133013D51
:1058C000042BF7D10020345C002C03D101300828D0
:1058D000F9D16DE06A466C465F1C56324E340021A9
:1058E0005078061CBE40314351700721CE1A30411A
:1058F000013AC1B2A242F3D1002312931393191CAF
:105900001F1CDA0814AC08310C37A25C342904D906
:105910003426F01AFF248440224012A8FF08C71939
:105920003C78161114333443DB0812A83C70C718B6
:105930003E78120132433A700B1E382BDFD10699A4
:10594000264C08194519EF0A04D0269C0122226032
:1059500000242DE06F4612A849376E050378397888
:10596000720E740C0B9E13430C430370E5B2002EB1
:1059700003D0802254422343037012A801786B465F
:105980004F331E781970013B1C781D703C706F46B8
:105990004A373D78013B187812AA1D7013AB167078
:1059A00079781E78387019707E70129C139D00E013
:1059B000251C201C291C21B0F0BDC046C046C04695
:1059C0000000000000000000FF7F00002C0E00001F
:1059D000D4F0FF1F08F2FF1FE0F0FF1FFE030000DE
:1059E000F0B50D1C554387B0061C002003911C1C0C
:1059F000854200D1A2E01F7B874200D09EE0DB7988
:105A0000381C002B00D199E0E1698D4209D8207A39
:105A10000127002805D0A279022A02D0571E7B4216
:105A20005F41637A002B07D161798A0704D5012091
:105A30006072201C00F0FCF9627A012A04D0012374
:105A400000202373606279E0236AA1698B4201D14F
:105A5000002F4AD0E269C81A8318002163620191BD
:105A6000606AA84201D8059000E00595A279012A54
:105A700002D0002302930DE0059A002AF9D0301CD1
:105A80000A2100F091F902900028F2D0011C0131A6
:105A9000881B0590059A002A0CD0311C206A00F062
:105AA0009FF9059B226A606AD118F618ED1AC31A8D
:105AB00021626362626A002A05D00299002902D13C
:105AC000A079002808D1201C002100F0DDF9002871
:105AD00002D00127277320E0019A059BD11801917C
:105AE000002D1CD0002FBBD100E00197A769A66153
:105AF000761902972662E769201CE56105A900F086
:105B0000C3F9002815D00123002123736162029E8E
:105B1000E761A661201C00F08BF900256562A07981
:105B2000022801D00022626201980399FAF78EFCE4
:105B300004E0019D05982A180192E8E707B0F0BD3E
:105B400038B5041C231C081C0121151CFFF748FF55
:105B5000401B454268414042204038BDF0B587B007
:105B6000059101930D990E9B009200220A60071C7B
:105B70001A60904216DB012814D0242812DC059804
:105B8000904207DD009C0198111CA0470126041CCF
:105B9000351C02E0141C161C40250022039297427B
:105BA00009D002E0141C161C402501214842391C72
:105BB000FAF74CFC03900023029304930598864265
:105BC00000DD9EE0621C00D19BE06022154200D007
:105BD00097E0681E0F28F1D8FAF71AFC082EF03F5C
:105BE000F0F0F052F0F0F0F0F0F0F052201CFFF77F
:105BF000CFFA021E09D00021009C01980A1CA04780
:105C0000041C049801300490D8E72B2C07D1009D88
:105C10000198111CA8470136041C0225CEE7022575
:105C20002D2CCBD1111C0198009B98470D99012276
:105C30000136041C0A60C1E7002F02D00825102F8E
:105C4000BCD10825302CB9D10021009C01980A1C38
:105C5000A0470136041C0425B0E7582C01D0782C4D
:105C600009D1002101980A1C009B98470136041CA9
:105C700008251027A2E71025002F9FD108279DE7B0
:105C8000002F00D10A270398002805D10122504295
:105C9000391CFAF7DBFB0390201C3038092802D8A6
:105CA000B84211DB0BE0201CFFF762FA002806D097
:105CB000201CFFF79DFA011C3639B94203DD102D77
:105CC0001DD120257AE73738029D039C0123A54288
:105CD00001D80E9B1B68029AC5B27A43D1438D420C
:105CE00000D901230E9C8018002123600290009DA2
:105CF00001980A1CA8470136041C10255EE74025C0
:105D00005CE734273D4003D10C9B02951D6004E005
:105D1000049D013E0C9976190E60211C0198012208
:105D2000009CA047029807B0F0BD30B5C9B2031C73
:105D30001F2A31D944420323234005D0D21AC51863
:105D400001700130A842FBD1002905D00D060C04DA
:105D50002C430B02214319435409031C002C0ED081
:105D6000251C013D196059609960D960196159611C
:105D70009961D9612033002DF3D16301C318D00696
:105D8000400F07D0041C1D1C013C02C5002CFBD198
:105D900080001B18032422409D18002A03D019708C
:105DA0000133AB42FBD130BD10B58418C9B2201C01
:105DB000131BC318002B04D0013803788B42F7D192
:105DC00000E0181C10BD00B5C9B28218904205D081
:105DD000037801308B42F9D1013800E0002000BD8A
:105DE00010B50023934203D0CC5CC4540133F9E7CF
:105DF00010BD00B5C9B20378421C002B03D08B4202
:105E000005D0101CF7E74B4259414942084000BDFC
:105E100000B50023CA5CC2540133002AFAD100BD88
